{
  "_format": "hh3-artifact-1",
  "contractName": "LiskGarden",
  "sourceName": "contracts/LiskGardenChallenge.sol",
  "abi": [
    {
      "inputs": [],
      "stateMutability": "nonpayable",
      "type": "constructor"
    },
    {
      "anonymous": false,
      "inputs": [
        {
          "indexed": true,
          "internalType": "uint256",
          "name": "plantId",
          "type": "uint256"
        }
      ],
      "name": "PlantDied",
      "type": "event"
    },
    {
      "anonymous": false,
      "inputs": [
        {
          "indexed": true,
          "internalType": "uint256",
          "name": "plantId",
          "type": "uint256"
        },
        {
          "indexed": true,
          "internalType": "address",
          "name": "owner",
          "type": "address"
        },
        {
          "indexed": false,
          "internalType": "uint256",
          "name": "reward",
          "type": "uint256"
        }
      ],
      "name": "PlantHarvested",
      "type": "event"
    },
    {
      "anonymous": false,
      "inputs": [
        {
          "indexed": true,
          "internalType": "address",
          "name": "owner",
          "type": "address"
        },
        {
          "indexed": true,
          "internalType": "uint256",
          "name": "plantId",
          "type": "uint256"
        }
      ],
      "name": "PlantSeeded",
      "type": "event"
    },
    {
      "anonymous": false,
      "inputs": [
        {
          "indexed": true,
          "internalType": "uint256",
          "name": "plantId",
          "type": "uint256"
        },
        {
          "indexed": false,
          "internalType": "uint8",
          "name": "newWaterLevel",
          "type": "uint8"
        }
      ],
      "name": "PlantWatered",
      "type": "event"
    },
    {
      "anonymous": false,
      "inputs": [
        {
          "indexed": true,
          "internalType": "uint256",
          "name": "plantId",
          "type": "uint256"
        },
        {
          "indexed": false,
          "internalType": "enum LiskGarden.GrowthStage",
          "name": "newStage",
          "type": "uint8"
        }
      ],
      "name": "StageAdvanced",
      "type": "event"
    },
    {
      "inputs": [],
      "name": "PLANT_PRICE",
      "outputs": [
        {
          "internalType": "uint256",
          "name": "",
          "type": "uint256"
        }
      ],
      "stateMutability": "view",
      "type": "function"
    },
    {
      "inputs": [],
      "name": "REWARD",
      "outputs": [
        {
          "internalType": "uint256",
          "name": "",
          "type": "uint256"
        }
      ],
      "stateMutability": "view",
      "type": "function"
    },
    {
      "inputs": [],
      "name": "STAGE_DURATION",
      "outputs": [
        {
          "internalType": "uint256",
          "name": "",
          "type": "uint256"
        }
      ],
      "stateMutability": "view",
      "type": "function"
    },
    {
      "inputs": [],
      "name": "WATER_DEPLETION_INTERVAL",
      "outputs": [
        {
          "internalType": "uint256",
          "name": "",
          "type": "uint256"
        }
      ],
      "stateMutability": "view",
      "type": "function"
    },
    {
      "inputs": [],
      "name": "WATER_DEPLETION_RATE",
      "outputs": [
        {
          "internalType": "uint256",
          "name": "",
          "type": "uint256"
        }
      ],
      "stateMutability": "view",
      "type": "function"
    },
    {
      "inputs": [
        {
          "internalType": "uint256",
          "name": "plantId",
          "type": "uint256"
        }
      ],
      "name": "calculateWaterLevel",
      "outputs": [
        {
          "internalType": "uint8",
          "name": "",
          "type": "uint8"
        }
      ],
      "stateMutability": "view",
      "type": "function"
    },
    {
      "inputs": [],
      "name": "getBalance",
      "outputs": [
        {
          "internalType": "uint256",
          "name": "",
          "type": "uint256"
        }
      ],
      "stateMutability": "view",
      "type": "function"
    },
    {
      "inputs": [
        {
          "internalType": "uint256",
          "name": "plantId",
          "type": "uint256"
        }
      ],
      "name": "getPlant",
      "outputs": [
        {
          "components": [
            {
              "internalType": "uint256",
              "name": "id",
              "type": "uint256"
            },
            {
              "internalType": "address",
              "name": "owner",
              "type": "address"
            },
            {
              "internalType": "enum LiskGarden.GrowthStage",
              "name": "stage",
              "type": "uint8"
            },
            {
              "internalType": "uint256",
              "name": "plantedDate",
              "type": "uint256"
            },
            {
              "internalType": "uint256",
              "name": "lastWatered",
              "type": "uint256"
            },
            {
              "internalType": "uint8",
              "name": "waterLevel",
              "type": "uint8"
            },
            {
              "internalType": "bool",
              "name": "exists",
              "type": "bool"
            },
            {
              "internalType": "bool",
              "name": "isDead",
              "type": "bool"
            }
          ],
          "internalType": "struct LiskGarden.Plant",
          "name": "",
          "type": "tuple"
        }
      ],
      "stateMutability": "view",
      "type": "function"
    },
    {
      "inputs": [
        {
          "internalType": "address",
          "name": "user",
          "type": "address"
        }
      ],
      "name": "getUserPlants",
      "outputs": [
        {
          "internalType": "uint256[]",
          "name": "",
          "type": "uint256[]"
        }
      ],
      "stateMutability": "view",
      "type": "function"
    },
    {
      "inputs": [
        {
          "internalType": "uint256",
          "name": "plantId",
          "type": "uint256"
        }
      ],
      "name": "harvestPlant",
      "outputs": [],
      "stateMutability": "nonpayable",
      "type": "function"
    },
    {
      "inputs": [],
      "name": "owner",
      "outputs": [
        {
          "internalType": "address",
          "name": "",
          "type": "address"
        }
      ],
      "stateMutability": "view",
      "type": "function"
    },
    {
      "inputs": [],
      "name": "plantCounter",
      "outputs": [
        {
          "internalType": "uint256",
          "name": "",
          "type": "uint256"
        }
      ],
      "stateMutability": "view",
      "type": "function"
    },
    {
      "inputs": [],
      "name": "plantSeed",
      "outputs": [
        {
          "internalType": "uint256",
          "name": "",
          "type": "uint256"
        }
      ],
      "stateMutability": "payable",
      "type": "function"
    },
    {
      "inputs": [
        {
          "internalType": "uint256",
          "name": "",
          "type": "uint256"
        }
      ],
      "name": "plants",
      "outputs": [
        {
          "internalType": "uint256",
          "name": "id",
          "type": "uint256"
        },
        {
          "internalType": "address",
          "name": "owner",
          "type": "address"
        },
        {
          "internalType": "enum LiskGarden.GrowthStage",
          "name": "stage",
          "type": "uint8"
        },
        {
          "internalType": "uint256",
          "name": "plantedDate",
          "type": "uint256"
        },
        {
          "internalType": "uint256",
          "name": "lastWatered",
          "type": "uint256"
        },
        {
          "internalType": "uint8",
          "name": "waterLevel",
          "type": "uint8"
        },
        {
          "internalType": "bool",
          "name": "exists",
          "type": "bool"
        },
        {
          "internalType": "bool",
          "name": "isDead",
          "type": "bool"
        }
      ],
      "stateMutability": "view",
      "type": "function"
    },
    {
      "inputs": [
        {
          "internalType": "uint256",
          "name": "plantId",
          "type": "uint256"
        }
      ],
      "name": "updatePlantStage",
      "outputs": [],
      "stateMutability": "nonpayable",
      "type": "function"
    },
    {
      "inputs": [
        {
          "internalType": "uint256",
          "name": "plantId",
          "type": "uint256"
        }
      ],
      "name": "waterPlant",
      "outputs": [],
      "stateMutability": "nonpayable",
      "type": "function"
    },
    {
      "inputs": [],
      "name": "withdraw",
      "outputs": [],
      "stateMutability": "nonpayable",
      "type": "function"
    },
    {
      "stateMutability": "payable",
      "type": "receive"
    }
  ],
  "bytecode": "0x6080604052348015600e575f5ffd5b50600380546001600160a01b0319163317905561114b8061002e5f395ff3fe6080604052600436106100fd575f3560e01c806390fd1ed411610092578063cab34c0811610062578063cab34c08146102ce578063cfc9a5f8146102e8578063ddd4259614610302578063e38f844814610321578063ed0b1f5f14610340575f5ffd5b806390fd1ed4146102725780639886bcfa146102865780639c471749146102a5578063bacb5ebd146102ba575f5ffd5b806374119a38116100cd57806374119a381461017f578063754e150d146101875780638da5cb5b146101b85780638dd2361c146101ef575f5ffd5b806312065fe01461010857806330cec0eb146101295780633ccfd60b1461015557806351f9efde1461016b575f5ffd5b3661010457005b5f5ffd5b348015610113575f5ffd5b50475b6040519081526020015b60405180910390f35b348015610134575f5ffd5b50610148610143366004610edd565b61036c565b6040516101209190610f0a565b348015610160575f5ffd5b506101696103d5565b005b348015610176575f5ffd5b50610116603c81565b6101166104b6565b348015610192575f5ffd5b506101a66101a1366004610f4c565b61066b565b60405160ff9091168152602001610120565b3480156101c3575f5ffd5b506003546101d7906001600160a01b031681565b6040516001600160a01b039091168152602001610120565b3480156101fa575f5ffd5b5061025e610209366004610f4c565b5f602081905290815260409020805460018201546002830154600384015460049094015492936001600160a01b0383169360ff600160a01b909404841693818116916101008104821691620100009091041688565b604051610120989796959493929190610f97565b34801561027d575f5ffd5b50610116601e81565b348015610291575f5ffd5b506101696102a0366004610f4c565b61079a565b3480156102b0575f5ffd5b5061011660025481565b3480156102c5575f5ffd5b50610116600281565b3480156102d9575f5ffd5b50610116660aa87bee53800081565b3480156102f3575f5ffd5b5061011666038d7ea4c6800081565b34801561030d575f5ffd5b5061016961031c366004610f4c565b61092e565b34801561032c575f5ffd5b5061016961033b366004610f4c565b610ac0565b34801561034b575f5ffd5b5061035f61035a366004610f4c565b610d3b565b6040516101209190610fec565b6001600160a01b0381165f908152600160209081526040918290208054835181840281018401909452808452606093928301828280156103c957602002820191905f5260205f20905b8154815260200190600101908083116103b5575b50505050509050919050565b6003546001600160a01b031633146104225760405162461bcd60e51b815260206004820152600b60248201526a213ab5b0b71037bbb732b960a91b60448201526064015b60405180910390fd5b6003546040515f916001600160a01b03169047908381818185875af1925050503d805f811461046c576040519150601f19603f3d011682016040523d82523d5f602084013e610471565b606091505b50509050806104b35760405162461bcd60e51b815260206004820152600e60248201526d15da5d1a191c985dc819d859d85b60921b6044820152606401610419565b50565b5f66038d7ea4c6800034101561050e5760405162461bcd60e51b815260206004820152601760248201527f53616c646f206b7572616e673a20302e303031204554480000000000000000006044820152606401610419565b60028054905f61051d83611077565b909155505060025460408051610100810182528281523360208083019182525f83850181815242606086018190526080860152606460a0860152600160c0860181905260e086018390528783529282905294902083518155915190820180546001600160a01b039092166001600160a01b03198316811782559451939492939290916001600160a81b03191617600160a01b8360038111156105c1576105c1610f63565b0217905550606082015160028201556080820151600382015560a08201516004909101805460c084015160e0909401511515620100000262ff0000199415156101000261ffff1990921660ff909416939093171792909216179055335f818152600160208181526040808420805493840181558452908320909101849055518392917f4f5b22082ac57121703b0b6c1203ef527cfbfa5069616fee6deb979d124adbf091a3919050565b5f818152602081815260408083208151610100810183528154815260018201546001600160a01b0381169482019490945284939092830190600160a01b900460ff1660038111156106be576106be610f63565b60038111156106cf576106cf610f63565b8152600282015460208201526003820154604082015260049091015460ff808216606084015261010082048116151560808401526201000090910416151560a09091015260c0810151909150158061072857508060e001515b1561073557505f92915050565b5f816080015142610746919061108f565b90505f610754601e836110a8565b90505f6107626002836110c7565b90508360a0015160ff16811061077d57505f95945050505050565b808460a0015160ff16610790919061108f565b9695505050505050565b5f8181526020819052604090206004810154610100900460ff166107d05760405162461bcd60e51b8152600401610419906110de565b60018101546001600160a01b031633146108225760405162461bcd60e51b8152602060048201526013602482015272109d5ad85b881c195b5a5b1a5ac81c1b185b9d606a1b6044820152606401610419565b600481015462010000900460ff16156108705760405162461bcd60e51b815260206004820152601060248201526f506c616e74207375646168206d61746960801b6044820152606401610419565b61087982610e3b565b600481015462010000900460ff16156108d45760405162461bcd60e51b815260206004820152601f60248201527f506c616e74206d617469206b6172656e61206b656861626973616e20616972006044820152606401610419565b60048101805460ff1916606490811790915542600383015560405190815282907fd4b742b9ba48fffa1f14267075a7793851770764117c423fd0a6550dfc8cb5749060200160405180910390a261092a8261092e565b5050565b5f8181526020819052604090206004810154610100900460ff166109645760405162461bcd60e51b8152600401610419906110de565b61096d82610e3b565b600481015462010000900460ff1615610984575050565b5f816002015442610995919061108f565b6001830154909150600160a01b900460ff166109b3603c60036110c7565b82106109db576001830180546003919060ff60a01b1916600160a01b835b0217905550610a3a565b6109e7603c60026110c7565b8210610a09576001830180546002919060ff60a01b1916600160a01b836109d1565b603c8210610a2a576001838101805460ff60a01b1916600160a01b836109d1565b60018301805460ff60a01b191690555b806003811115610a4c57610a4c610f63565b6001840154600160a01b900460ff166003811115610a6c57610a6c610f63565b14610aba57600183015460405185917f338b8976706f9da67298dddfa1ea4ff7d99cce68b9ca39c4f348994f8e2124a891610ab191600160a01b900460ff1690611107565b60405180910390a25b50505050565b5f8181526020819052604090206004810154610100900460ff16610af65760405162461bcd60e51b8152600401610419906110de565b60018101546001600160a01b03163314610b485760405162461bcd60e51b8152602060048201526013602482015272109d5ad85b881c195b5a5b1a5ac81c1b185b9d606a1b6044820152606401610419565b600481015462010000900460ff1615610ba35760405162461bcd60e51b815260206004820152601c60248201527f506c616e74206d6174692c20746964616b20626973612070616e656e000000006044820152606401610419565b610bac8261092e565b60036001820154600160a01b900460ff166003811115610bce57610bce610f63565b14610c095760405162461bcd60e51b815260206004820152600b60248201526a2132b63ab69036b2b5b0b960a91b6044820152606401610419565b60048101805461ff0019169055604051660aa87bee5380008152339083907f79f2138ea100070ff95b59c265da7aa3c7a0f61595fe1bb2f5fda2762f3988479060200160405180910390a3660aa87bee538000471015610ca25760405162461bcd60e51b815260206004820152601460248201527353616c646f206b6f6e7472616b206b7572616e6760601b6044820152606401610419565b6040515f903390660aa87bee538000908381818185875af1925050503d805f8114610ce8576040519150601f19603f3d011682016040523d82523d5f602084013e610ced565b606091505b5050905080610d365760405162461bcd60e51b8152602060048201526015602482015274151c985b9cd9995c881c995dd85c990819d859d85b605a1b6044820152606401610419565b505050565b60408051610100810182525f80825260208201819052918101829052606081018290526080810182905260a0810182905260c0810182905260e08101919091525f828152602081815260408083208151610100810183528154815260018201546001600160a01b03811694820194909452929091830190600160a01b900460ff166003811115610dcd57610dcd610f63565b6003811115610dde57610dde610f63565b8152600282015460208201526003820154604082015260049091015460ff808216606084015261010082048116151560808401526201000090910416151560a0909101529050610e2d8361066b565b60ff1660a082015292915050565b5f8181526020819052604090206004810154610100900460ff16610e5d575050565b5f610e678361066b565b60048301805460ff191660ff8316908117909155909150158015610e965750600482015462010000900460ff16155b15610d365760048201805462ff000019166201000017905560405183907fcc296a21951f3e57f21afb08547d835a0a9f0f06cc2867009cbe0cae44d36be9905f90a2505050565b5f60208284031215610eed575f5ffd5b81356001600160a01b0381168114610f03575f5ffd5b9392505050565b602080825282518282018190525f918401906040840190835b81811015610f41578351835260209384019390920191600101610f23565b509095945050505050565b5f60208284031215610f5c575f5ffd5b5035919050565b634e487b7160e01b5f52602160045260245ffd5b60048110610f9357634e487b7160e01b5f52602160045260245ffd5b9052565b8881526001600160a01b03881660208201526101008101610fbb6040830189610f77565b6060820196909652608081019490945260ff9290921660a0840152151560c0830152151560e0909101529392505050565b815181526020808301516001600160a01b03169082015260408083015161010083019161101b90840182610f77565b50606083015160608301526080830151608083015260ff60a08401511660a083015260c0830151151560c083015260e083015161105c60e084018215159052565b5092915050565b634e487b7160e01b5f52601160045260245ffd5b5f6001820161108857611088611063565b5060010190565b818103818111156110a2576110a2611063565b92915050565b5f826110c257634e487b7160e01b5f52601260045260245ffd5b500490565b80820281158282048414176110a2576110a2611063565b6020808252600f908201526e506c616e7420746964616b2061646160881b604082015260600190565b602081016110a28284610f7756fea264697066735822122020aa126aa69faac6d4132f79b9f7398d126c1aa4a138ee53d95b035d4b18461a64736f6c634300081e0033",
  "linkReferences": {},
  "deployedLinkReferences": {},
  "immutableReferences": {},
  "inputSourceName": "project/contracts/LiskGardenChallenge.sol",
  "buildInfoId": "solc-0_8_30-f76c8fbf54f7ba0965169ae49cc97a024b75cace"
}